:1000000014C1000040C100003EC100003CC100001E
:100010003AC1000038C1000036C1000034C1000000
:1000200032C1000030C100002EC100002CC1000010
:100030002AC1000028C1000026C1000024C1000020
:1000400022C1000020C100001EC100001CC1000030
:100050001AC1000018C1000016C10000C6C200008D
:1000600012C1000035C300000AC300000CC100002B
:100070000AC1000008C1000006C1000004C1000060
:1000800002C1000000C10000FEC00000FCC0000072
:10009000FAC00000F8C00000F6C00000F4C0000084
:1000A000F2C00000F0C00000EEC00000ECC0000094
:1000B000EAC00000E8C00000E6C00000E4C00000A4
:1000C000E2C00000E0C00000DEC00000DCC00000B4
:1000D000DAC00000D8C00000D6C00000D4C00000C4
:1000E000D2C00000C904CC04BB04BF04C304030590
:1000F000D004D404DA04DE04E204E804EC04F004DE
:100100000305F604FA04FE0400002200250028007E
:100110002B002E003100340002010000050108010F
:100120000B0100002100240027002A002D003000D0
:10013000330001010000040107010A010000200052
:100140002300260029002C002F00320000010000AF
:10015000030106010901050505050705080808084A
:10016000020202020A0A080804040404010101014F
:10017000010101010303030303030303040707074A
:100180000C0C0C0C0C0C0C0C0202020206060606EF
:10019000060606060B0B0B0B0B0B0B0B01021020BC
:1001A00020080810204010204080020102010804AD
:1001B0000201010204081020408080402010080441
:1001C000020180040201804020100804020108049A
:1001D00002010102040810204080010204081020DE
:1001E000408000000A0B02090C0D0E0807030401F1
:1001F00000000000000000000000000000000000FF
:1002000000000000000000000000000000001211CB
:1002100010000000000000000000000000000000CE
:100220000000000000000000710511241FBECFEF88
:10023000D1E2DEBFCDBF00E00CBF12E0A0E0B2E033
:10024000ECE9FBE000E00BBF02C007900D92A23981
:10025000B107D9F723E0A2E9B2E001C01D92A833AB
:10026000B207E1F711E0C5E1D1E000E005C0219758
:100270000109802FFE0184D4C431D10780E0080732
:10028000B1F75CD289C4BCCE3FB7F8948091970295
:1002900090919802A0919902B0919A0226B5A89BDC
:1002A00005C02F3F19F00196A11DB11D3FBFBA2F08
:1002B000A92F982F8827820F911DA11DB11DBC0168
:1002C000CD0142E0660F771F881F991F4A95D1F72D
:1002D0000895CF92DF92EF92FF920F931F93CF93E7
:1002E000DF936C017A018B01C0E0D0E0CE15DF0511
:1002F00081F0D8016D918D01D601ED91FC910190B5
:10030000F081E02DC6011995892B11F02196EECFD1
:100310007E01C701DF91CF911F910F91FF90EF9068
:10032000DF90CF900895089580E090E00895FC015B
:10033000538D448D252F30E0842F90E0821B930B4A
:10034000541710F0CF96089501970895FC01918DF0
:10035000828D981761F0828DDF01A80FB11D5D9627
:100360008C91928D9F5F9F73928F90E008958FEF95
:100370009FEF0895FC01918D828D981731F0828D49
:10038000E80FF11D858D90E008958FEF9FEF0895A0
:10039000FC01918D228D892F90E0805C9F4F821B04
:1003A00091098F73992708958BE992E0F1DF21E09D
:1003B000892B09F420E0822F0895FC01848DDF0150
:1003C000A80FB11DA35ABF4F2C91848D90E00196C8
:1003D0008F739927848FA689B7892C93A089B189B7
:1003E0008C91837080648C93938D848D981306C058
:1003F0000288F389E02D80818F7D80830895EF92BC
:10040000FF920F931F93CF93DF93EC0181E0888FCE
:100410009B8D8C8D981305C0E889F989808185FDB5
:1004200025C0F62E0B8D10E00F5F1F4F0F731127A5
:10043000E02E8C8DE8120BC00FB607FCFACFE889CE
:10044000F989808185FFF5CFCE01B7DFF2CF8B8DA3
:10045000FE01E80FF11DE35AFF4FF0829FB7F894B9
:100460000B8FEA89FB89808180620AC09FB7F8946C
:10047000EE89FF896083E889F989808183708064CF
:1004800080839FBF81E090E0DF91CF911F910F911A
:10049000FF90EF900895CF93DF93EC01888D882330
:1004A000C1F0EA89FB89808185FD05C0A889B989E9
:1004B0008C9186FD0EC00FB607FCF5CF808185FFBD
:1004C000F2CFA889B9898C9185FFEDCFCE0175DF78
:1004D000E8CFDF91CF91089580E090E0892B19F06B
:1004E00063DF811125C080E090E0892B41F080E03E
:1004F00090E0892B21F00E94000081111CC080E057
:1005000090E0892B41F080E090E0892B21F00E945F
:100510000000811113C080E090E0892BA1F080E001
:1005200090E0892B81F00E94000081110AC008959B
:100530000E940000D8CF0E940000E1CF0E9400007E
:10054000EACF0C9400000895009761F0FC0101903F
:100550000020E9F73197AF01481B590BBC018BE92B
:1005600092E0B7CE80E090E008958F929F92AF9294
:10057000BF920F931F93CF93DF93CDB7DEB7A197B1
:100580000FB6F894DEBF0FBECDBF19A2423008F4FB
:100590004AE08E010F5D1F4F842E912CA12CB12CAF
:1005A000A5019401CBD2E62FB901CA01015011096E
:1005B000EA3014F4E05D01C0E95CD801EC93232B30
:1005C000242B252B69F7C801BFDFA1960FB6F8943D
:1005D000DEBF0FBECDBFDF91CF911F910F91BF90B6
:1005E000AF909F908F900895D3D21F920F920FB625
:1005F0000F9211242F933F938F939F93AF93BF93A9
:100600008091930290919402A0919502B0919602EC
:100610003091920223E0230F2D3720F40196A11D83
:10062000B11D05C026E8230F0296A11DB11D209320
:1006300092028093930290939402A0939502B093B8
:1006400096028091970290919802A0919902B091A0
:100650009A020196A11DB11D809397029093980272
:10066000A0939902B0939A02BF91AF919F918F91FD
:100670003F912F910F900FBE0F901F9018951F92D2
:100680000F920FB60F9211240BB60F922F933F9338
:100690004F935F936F937F938F939F93AF93BF938A
:1006A000EF93FF938BE992E088DEFF91EF91BF918A
:1006B000AF919F918F917F916F915F914F913F91FA
:1006C0002F910F900BBE0F900FBE0F901F9018959B
:1006D0001F920F920FB60F9211240BB60F922F9309
:1006E0008F939F93EF93FF93E091AB02F091AC0255
:1006F0008081E091B102F091B20282FD12C090813E
:100700008091B4028F5F8F732091B502821751F0F0
:10071000E091B402F0E0E556FD4F958F8093B4026E
:1007200001C08081FF91EF919F918F912F910F9048
:100730000BBE0F900FBE0F901F901895CF93DF93B5
:1007400000D01F921F92CDB7DEB7789484B5826037
:1007500084BD84B5816084BD85B5826085BD85B565
:10076000816085BD80916E00816080936E001092E3
:10077000810080918100826080938100809181005E
:1007800081608093810080918000816080938000EF
:100790008091B10084608093B1008091B00081604D
:1007A0008093B0008091910082608093910080914D
:1007B000910081608093910080919000816080938E
:1007C00090008091A10082608093A1008091A1009F
:1007D00081608093A1008091A00081608093A0003F
:1007E00080912101826080932101809121018160AB
:1007F000809321018091200181608093200180916C
:100800007A00846080937A0080917A00826080937D
:100810007A0080917A00816080937A0080917A00DA
:10082000806880937A001092C100E091AB02F09151
:10083000AC0282E08083E091A702F091A8021082CE
:10084000E091A902F091AA028FEC80831092B3028A
:10085000E091AF02F091B00286E08083E091AD02BA
:10086000F091AE02808180618083E091AD02F091D1
:10087000AE02808188608083E091AD02F091AE028B
:10088000808180688083E091AD02F091AE0280812A
:100890008F7D8083A2E1B2E02AE532E08D919D91C7
:1008A0009927FC01E456FE4F4491FC01EA5AFE4FA1
:1008B00084918823C9F090E0880F991FFC01EE5DB8
:1008C000FE4FE590F490FC01E85FFE4F6591749156
:1008D0009FB7F894F7018081409584238083FB01C2
:1008E0008081842380839FBF2A173B07B9F6198232
:1008F0001A821B821C821D82C12CD12C7601BD80E4
:10090000BC0C8AE592E020DE4AE069817A818B8125
:100910009C812BDE86E692E017DE4AE0C701B60135
:1009200024DE80E792E010DEEB2DF0E0EE0FFF1FFB
:10093000EE5EFD4F408151815527FA01EE51FE4F89
:100940008491FA01E456FE4F2491FA01EA5AFE4FCF
:100950004491442309F468C0882309F454C090E00A
:10096000FC013197E231F10508F04DC08827EE58BF
:10097000FF4F8F4F05C1809180008F7707C0809116
:1009800080008F7D03C080918000877F80938000EE
:100990003AC084B58F7702C084B58F7D84BD33C0E3
:1009A0008091B0008F7703C08091B0008F7D8093DD
:1009B000B00029C0809190008F7707C0809190008F
:1009C0008F7D03C080919000877F809390001BC033
:1009D0008091A0008F7707C08091A0008F7D03C019
:1009E0008091A000877F8093A0000DC0809120019E
:1009F0008F7707C0809120018F7D03C080912001F7
:100A0000877F80932001E42FF0E0EE0FFF1FE45C6E
:100A1000FE4FA591B491EC912E2391E080E009F472
:100A200090E0692F782F02C060E070E0072E000C84
:100A3000880B990B4AE099DD85E792E085DD88E730
:100A400092E082DD6B2D70E080E090E04AE08DDD89
:100A500085E792E079DD18DC2B013C0180E7882EE8
:100A600087E1982EA12CB12C0FDCDC01CB0184197D
:100A70009509A609B709883E9340A105B105A0F3E1
:100A8000F1E08F1A9108A108B10828EE420E23E088
:100A9000521E611C711C81149104A104B10421F740
:100AA0007FEFC71AD70AE70AF70A86E0C816D1040B
:100AB000E104F10409F023CF9D819A5F9D83698150
:100AC0007A818B819C816F5F7F4F8F4F9F4F6983AE
:100AD0007A838B839C837D81743209F00DCFFCDC9B
:100AE00006CFEBE9F2E01382128288EE93E0A0E0F9
:100AF000B0E084839583A683B78384E092E09183FA
:100B0000808385EC90E09587848784EC90E09787DC
:100B1000868780EC90E0918B808B81EC90E0938BCA
:100B2000828B82EC90E0958B848B86EC90E0978BA7
:100B3000868B118E128E138E148E0895A1E21A2EBA
:100B4000AA1BBB1BFD010DC0AA1FBB1FEE1FFF1F71
:100B5000A217B307E407F50720F0A21BB30BE40BC1
:100B6000F50B661F771F881F991F1A9469F7609508
:100B70007095809590959B01AC01BD01CF010895C2
:100B8000EE0FFF1F881F8BBF0790F691E02D199481
:0C0B900081E090E0F89400C0F894FFCFE2
:100B9C0000000000FF01690197014B02C801A6018A
:100BAC00BA0102000300040005000600070008005B
:100BBC0009000A000B000C000D00160017001800AD
:100BCC0019001A001B001C001D001E001F00200035
:100BDC0021002200230024002500260027002800E5
:100BEC0029002A002B002C002D0056616C6F7220FE
:100BFC0066696C61200020636F6C756D6E612000FE
:100C0C00203D3E20000D0A0046696E616C20646533
:100C1C002063617272657261206E756D65726F20F2
:020C2C000000C6
:00000001FF
